:1000000010C02AC029C028C027C026C025C024C0CF
:1000100023C022C021C020C01FC01EC01DC01CC0E4
:100020001BC011241FBECFE5D1E0DEBFCDBF10E065
:10003000A0E6B0E0E8E4F3E002C005900D92A23A39
:10004000B107D9F720E0A2EAB0E001C01D92AF3BB2
:10005000B207E1F70BD176C1D3CFDC01FA011082F0
:100060008C918623E9F78CE18A95F1F7000088E30B
:100070008A95F1F700C08C91862319F08081816008
:10008000808388E38A95F1F700C08C91862319F06C
:1000900080818260808388E38A95F1F700C08C912B
:1000A000862319F080818460808388E38A95F1F744
:1000B00000C08C91862319F080818860808388E35A
:1000C0008A95F1F700C08C91862319F080818061B8
:1000D000808388E38A95F1F700C08C91862319F01C
:1000E00080818062808388E38A95F1F700C08C91DB
:1000F000862319F080818064808388E38A95F1F7F4
:1001000000C08C91862319F080818068808388E309
:100110008A95F1F700C08CE18A95F1F70000089507
:10012000FC019081862F80959823908398E39A957F
:10013000F1F700C0908140FF02C0962B01C09823C8
:10014000908398E39A95F1F700C0908141FF02C037
:10015000962B01C09823908398E39A95F1F700C0FD
:10016000908142FF02C0962B01C09823908398E3B0
:100170009A95F1F700C0908143FF02C0962B01C011
:100180009823908398E39A95F1F700C0908144FFFB
:1001900002C0962B01C09823908398E39A95F1F7BB
:1001A00000C0908145FF02C0962B01C09823908328
:1001B00098E39A95F1F700C0908146FF02C0962B14
:1001C00001C09823908398E39A95F1F700C047FF08
:1001D00004C08081862B808303C090819823908304
:1001E00088E38A95F1F700C08081862B808398E3AD
:1001F0009A95F1F700C088E38A95F1F700C0089559
:10020000FF920F931F93CF93DF938C01F62EEA0199
:100210001092BE001092BD00E091BD00F091BE00B2
:10022000EC0FFD1F40816F2DC8017ADF2091BD00CA
:100230003091BE002F5F3F4F3093BE002093BD0032
:10024000FE01E20FF31F80818111E6CFDF91CF9194
:100250001F910F91FF90089580E886BD16BC089508
:10026000D19AD99ABA9AC29AD7980895F5DFF8DF49
:1002700040E650E062E08BE390E0C2DFCF99FECF32
:10028000C2984BE850E062E08BE390E0B9DF8091E8
:10029000BB009091BC0001969093BC008093BB0082
:1002A0004AE050E062EA70E010D042EA50E062E0DA
:1002B0008BE390E0A5DF4AE950E062E08BE390E059
:1002C0009FDFCF9BFECFC29AD9CF4532510518F49C
:1002D000423008F004C0FB011082CB010895BB2717
:1002E0004A3031F4992322F4BDE2909581959F4FD5
:1002F00001C0BB27FB015527AA27880F991FAA1FFA
:10030000A41710F0A41B83955051B9F7A05DAA3330
:1003100008F0A95DA193009779F7B111B1931192FB
:10032000CB0100C0DC01FC01672F71917723E1F75D
:10033000329704C07C916D9370836291AE17BF07B2
:08034000C8F30895F894FFCF03
:100348005374617274696E672073657269616C2099
:1003580070726573732D627574746F6E2D636F752B
:100368006E74657220746573740A007072657373B5
:100378002D627574746F6E3A20002074696D657310
:020388000A0069
:00000001FF
